:020000042000DA
:10000000B849012049030020510300205303002078
:100010005503002057030020590300200000000072
:100020000000000000000000000000008D02002021
:100030005D03002000000000E1020020754C00205C
:100040006303002063030020630300209149002024
:100050006303002063030020630300206303002088
:10006000A1090020B90900206303002063030020D8
:100070006303002063030020630300206303002068
:100080006303002063030020630300206303002058
:10009000630300206303002063030020D1090020D4
:1000A0006303002063030020630300206303002038
:1000B00063030020054E002063030020630300203B
:1000C0006303002063030020630300206303002018
:1000D0006303002091560020630300206303002087
:1000E00089090020630300206303002063030020CC
:1000F00063030020B54E002063030020630300204B
:1001000063030020630300206303002063030020D7
:1001100063030020630300207D4E0020994E0020E1
:1001200063030020630300204908002063030020CC
:10013000630300206303002063030020F506002012
:10014000BD05002059060020630300206303002042
:10015000630300206303002059080020630300208C
:100160006303002063030020630300206303002077
:1001700063030020630300206303002000000000ED
:100180006303002063030020630300206303002057
:100190006303002063030020630300206303002047
:1001A0007D3A0020630300201907002000F002F8C8
:1001B00000F05CF80AA090E8000C82448344AAF1A5
:1001C0000107DA4501D100F051F8AFF2090EBAE8A3
:1001D0000F0013F0010F18BFFB1A43F0010318477B
:1001E0000CF800002CF800000A444FF0000C10F846
:1001F000013B13F0070408BF10F8014B1D1108BFA5
:1002000010F8015B641E05D010F8016B641E01F844
:10021000016BF9D113F0080F1EBF10F8014BAD1C94
:100220000C1B09D16D1E58BF01F801CBFAD505E0B2
:1002300014F8016B01F8016B6D1EF9D59142D6D30C
:10024000704700000023002400250026103A28BF34
:1002500078C1FBD8520728BF30C148BF0B60704738
:100260001FB50AF0D9F81FBD10B510BD00F06BF92D
:100270001146FFF7F5FF05F0A7FB00F089F903B47D
:10028000FFF7F2FF03BC00F091F900002B4B196857
:100290000868B0E8F04F80F30988BFF36F8F4FF024
:1002A000000080F3118870470000000006480068D5
:1002B000006880F3088862B661B6BFF34F8FBFF362
:1002C0006F8F00DF00BF00BF08ED00E0DFF80C001B
:1002D000016841F470010160704700BF88ED00E0E3
:1002E000EFF30980BFF36F8F144B1A681EF0100FE5
:1002F00008BF20ED108A20E9F04F106008B44FF0DD
:10030000500080F31188BFF34F8FBFF36F8F08F059
:1003100009FD4FF0000080F3118808BC19680868D7
:10032000B0E8F04F1EF0100F08BFB0EC108A80F359
:100330000988BFF36F8F704700BF00BF2C000120FA
:10034000EFF30580704700000948804709480047DF
:10035000FEE7FEE7FEE7FEE7FEE7FEE7FEE7FEE775
:10036000FEE7FEE704480549054A064B70470000D2
:10037000A14D0020AD010020B8430120B849012063
:10038000B8450120B845012040EA0103024630B5D6
:100390009B0710D14FF0013400E008C208C91D1BB3
:1003A0009D4315EAC41FF8D013F0FF0102F8011BAA
:1003B0000DD01B0AF8E711F8013B002B02F8013BB6
:1003C00005D011F8013B002B02F8013BF3D130BD01
:1003D000032A40F2308010F0030C00F0158011F871
:1003E000013BBCF1020F624498BF11F801CB00F849
:1003F000013B38BF11F8013BA2F1040298BF00F89D
:1004000001CB38BF00F8013B11F0030300F0258059
:10041000083AC0F0088051F8043B083A51F804CB80
:10042000A0E80810F5E7121D5CBF51F8043B40F846
:10043000043BAFF30080D20724BF11F8013B11F851
:1004400001CB48BF11F8012B24BF00F8013B00F895
:1004500001CB48BF00F8012B704710B5203AC0F01F
:100460000B80B1E81850203AA0E81850B1E81850B5
:10047000A0E81850BFF4F5AF5FEA027C24BFB1E8F2
:100480001850A0E8185044BF18C918C0BDE8104063
:100490005FEA827C24BF51F8043B40F8043B08BF6C
:1004A0007047D20728BF31F8023B48BF11F8012B33
:1004B00028BF20F8023B48BF00F8012B704700001E
:1004C0004FF0013C50F8042B51F8043B9A4221D1E3
:1004D000A2EB0C03934313EACC1317D150F8042B6F
:1004E00051F8043B9A4215D1A2EB0C03934313EA53
:1004F000CC130BD150F8042B51F8043B9A4209D18C
:10050000A2EB0C03934313EACC13DBD04FF00000B3
:10051000704700BFD01A01BAB1FA81F101F0180199
:1005200022FA01F0CB40C1F12001DBB2C0B2C01A07
:100530002CFA01F3D11A914311EAC311E6D17047A5
:10054000704770477047754600F02CF8AE460500BE
:100550006946534620F00700854618B020B5FFF7DE
:1005600001FFBDE820404FF000064FF000074FF0BC
:1005700000084FF0000B21F00701AC46ACE8C009C1
:10058000ACE8C009ACE8C009ACE8C0098D467047CA
:1005900010B50446AFF300802046BDE81040FFF7D9
:1005A0006EBE0000004870475843012001491820E2
:1005B000ABBEFEE7260002007047000000B585B024
:1005C0002148006800F00200022810D01E480830C0
:1005D0000068CDF80A001C480C300168CDF80E10F8
:1005E0001948001D006800F00F008DF8090016483A
:1005F000006840F2FF7101EA5050ADF80600124861
:10060000001D0068000A8DF8080000208DF8040025
:100610000E48006840F020000C490860002000905F
:1006200000236A4601A90A48006809F0DDFA00982B
:10063000012806D1000707490860BFF34F8FBFF3B9
:100640006F8F05B000BD0000B06900400C6800402D
:10065000FC00012004ED00E000B585B021480068F1
:1006600000F00200022810D01E4808300068CDF8C3
:100670000A001C480C300168CDF80E101948001D06
:10068000006800F00F008DF809001648006840F27D
:10069000FF7101EA5050ADF806001248001D0068D5
:1006A000000A8DF8080001208DF804000E4800684B
:1006B00040F020000C4908600020009000236A46AA
:1006C00001A90A48006809F08FFA0098012806D1AC
:1006D000000707490860BFF34F8FBFF36F8F05B066
:1006E00000BD0000C069004010680040FC0001200F
:1006F00004ED00E010B505480068054908430349CA
:1007000008600448006805F09DFC10BD08680040C2
:1007100001010100F400012010B5064800F0CAFAFA
:100720004FF48130044908600448006805F08AFCF1
:1007300010BD0000E03E012000B00240C0000120DA
:100740002DE9F0470C4616461F46DDF820C04FF055
:1007500000080025002100220023D0F80090D9F8DD
:10076000449009F0404ADFF8DC9099FAA9F9B9FA07
:1007700089F907FA09F949EA0C094AEA090AD0F89D
:100780000090C9F844A0D0F80090C9F83C60D0F8B7
:100790000490B9F5403F4ED104F07F4504F47F0149
:1007A00004F47F42E3B2D0F80890B9F1000F06D10B
:1007B00042EA010949EA050949EA030836E0D0F8A6
:1007C0000890B9F1010F04D142EA010949EA03088E
:1007D0002CE0D0F80890B9F1020F09D1C90C920AA7
:1007E000DB084FEA421949EAC12949EA03081DE03A
:1007F000D0F80890B9F1030F0CD1ED0FC90CD20A53
:10080000DB084FEA421949EA812949EAC53949EA30
:1008100003080BE02D0F090D120B1B094FEA0219FB
:1008200049EA012949EA053949EA0308D0F8009064
:10083000C9F8388003E0D0F80090C9F80C40BDE852
:10084000F08700000000FF3F10B5024800F0D0FB29
:1008500010BD0000DC40012010B5064800F0C8FBC8
:1008600005480068C06840F0100003490968C86086
:1008700010BD00003C4101209C4001200146087849
:1008800010381823B0FBF3F20848805CC865032ACF
:1008900005D908686FF30900001D886503E0086842
:1008A0006FF309008865886D704700003AA4002046
:1008B000014600208A6A8B69CBB932B1012A0DD07A
:1008C000022A03D0032A10D10EE000BFCB6A03F046
:1008D0008073B3F1807F00D1012007E0CB6AB3F1D0
:1008E000C07F00D1012001E000E000BF34E08B694F
:1008F000B3F5005F1AD132B1012A07D0022A03D022
:10090000032A11D10AE000BF01200EE0CB6A03F0F8
:100910008073B3F1807F00D1012006E0CB6AB3F190
:10092000C07F00D1012000E000BF15E032B1012AF4
:1009300005D0022A04D0032A0CD103E000BF00BF77
:10094000012008E0CB6A03F08073B3F1807F00D10F
:10095000012000E000BF00BF704730B50468246884
:1009600024F4802405682C60046863608468402C4B
:1009700004D10468A2600468E16003E00468A16037
:100980000468E26030BD000010B54FF4806000F0F4
:1009900081FD0248006805F055FB10BDD400012020
:1009A00010B5042000F076FD0248006805F04AFB0F
:1009B00010BD0000C800012010B5082000F06AFD3D
:1009C0000248006805F03EFB10BD0000CC0001208D
:1009D00010B54FF4007000F05DFD0248006805F0AE
:1009E00031FB10BDD000012030B5024600230024A9
:1009F0000868012816D013686FF30E03D1E90105CA
:100A00002843CD6828430D6928434D6928438D69E3
:100A10002843CD6928430D6A28434D6A2843034380
:100A2000136019E0136823F4F843D1E9070528435C
:100A30004D6A2843034354686FF30E04D1E901055E
:100A40002843CD6828430D6928434D6928438D69A3
:100A50002843044313605460002030BD02465069AF
:100A600040EA4100506100207047F8B506460C4648
:100A70001546002000900027D4E900010843A16832
:100A8000491E40EA4110E16840EA41200090009888
:100A9000306100F021FE074609E0681C38B125B13D
:100AA00000F01AFEC01BA84201D90320F8BDB069AE
:100AB00000F020000028F0D100BFF7E770B5034632
:100AC000154600220024012D1FD09A6802F07042C2
:100AD0000868401E4E68761E40EA06168868401E6A
:100AE00046EA0026C868401E46EA0036088A401ECC
:100AF00046EA0046888A401E46EA0056087E401EA6
:100B000046EA006002439A6022E09A681148024077
:100B1000C868401E0603888A401E46EA0050024309
:100B2000DC6804F070440868401E4E68761E40EA97
:100B300006168868401E46EA0026088A401E46EAD5
:100B40000046087E401E46EA006004439A60DC606E
:100B5000002070BDFF0F0FFF10B504460CB9012037
:100B600010BD607920B900202071204600F006F801
:100B700002206071012060710020F1E708B50A4A87
:100B8000016891420FD100BF002100910749096817
:100B900041F48051054A11601146096801F4805101
:100BA000009100BF00BF08BD003002403038024055
:100BB0007047000070B502460B4602F1180000EBCA
:100BC000031100245068B0F5403F02D0506800B1D6
:100BD00000BF00BF92F83800012801D1022070BD8B
:100BE000012082F8380000BF022082F839004868EE
:100BF0000A2802D0486809280FD14FF4403696FAE7
:100C0000A6F6B6FA86F6D1E90105B5402843CD68C7
:100C100005F07F4540EA050413E04FF4403696FAAC
:100C2000A6F6B6FA86F6D1E90105B54028434FF09D
:100C30007F4696FAA6F6B6FA86F6CD68B54040EA43
:100C40000504ABB91068406A194D28402043156867
:100C5000686208681568A86148680A2802D0486870
:100C600009281AD1C86820F07F401568A86214E0EE
:100C70001068C0690E4D284020431568E861086877
:100C80001568286148680A2802D04868092804D1F4
:100C9000C86820F07F4015682862012082F839007A
:100CA00000BF002082F8380000BF00BF97E70000B7
:100CB000F0FFFC0070B504462068456820680668AF
:100CC00005F00100E0B106F48070C8B1206800684A
:100CD00020F4807021680860E06B40F00100E06360
:100CE000012021688860042084F8390000BF0020BA
:100CF00084F8380000BF606910B1204661698847F8
:100D000005F02000E0B106F40050C8B1206800688A
:100D100020F4005021680860202021688860E06B82
:100D200040F00200E063042084F8390000BF002096
:100D300084F8380000BF606910B1204661698847B7
:100D400005F00800E0B106F40060C8B12068006852
:100D500020F4006021680860082021688860E06B4A
:100D600040F00400E063042084F8390000BF002054
:100D700084F8380000BF606910B120466169884777
:100D800005F0040070B106F4806058B12068006876
:100D900020F4806021680860042021688860204673
:100DA00000F06BF805F00200D0B106F40070B8B1A5
:100DB0002068006820F40070216808600220216823
:100DC0008860E06BE063012084F8390000BF0020F8
:100DD00084F8380000BF206910B120462169884797
:100DE00005F01000C0B106F48050A8B1206800687A
:100DF00020F4805021680860102021688860E06B32
:100E0000E063012084F8390000BF002084F8380036
:100E100000BF2046FFF7CCFE70BD10B504460CB9EC
:100E2000012010BD94F8390028B9002084F838005A
:100E3000204600F023F8022084F83900206800687A
:100E400020F4403061680843216808602068406BE6
:100E500020F00700A1680843216848632068006CFF
:100E60006FF30D00E1680843216808640020E06327
:100E7000012084F839000020D3E7704738B50446D4
:100E80000E492068884217D100BF002000900C480E
:100E9000006840F400000A4908600846006800F451
:100EA0000000009000BF00BF002206215A2000F081
:100EB000E1FE5A2000F0D1FE38BD000000B0024033
:100EC000303802402DE9F84304460D4616461F46C9
:100ED000DDF8208000BF94F83800012802D10220FC
:100EE000BDE8F883012084F8380000BF022084F8B0
:100EF00039003B46324629462046CDF80080FFF7B0
:100F00001FFC2068006840F40C50216808602068CD
:100F1000006840F00100216808600020E0E770B53B
:100F20000446A56D00F0D8FB064694F8350002286B
:100F300008D08020606500BF002084F8340000BF26
:100F4000012070BD2068006820F01600216808604C
:100F50002068406920F0800021684861206C08B951
:100F6000A06C28B12068006820F0080021680860A3
:100F70002068006820F00100216808600FE000F0A0
:100F8000ABFB801B05280AD92020606500BF00202C
:100F900084F8340000BF032084F83500D1E72068CE
:100FA000006800F001000028E9D194F85C103F20AF
:100FB0008840A86000BF002084F8340000BF0120F2
:100FC00084F835000020BCE7014691F8350002287E
:100FD00003D08020486501207047052081F8350046
:100FE0000868006820F001000A6810600020F3E73C
:100FF000F8B50446002000908D4800684FF4165163
:10100000B0FBF1F7A56D2E6894F85C1008208840BD
:10101000304098B12068006800F0040070B120688A
:10102000006820F004002168086094F85C10082033
:101030008840A860606D40F00100606594F85C1025
:101040007C488840304068B12068406900F08000EA
:1010500040B194F85C1077488840A860606D40F01B
:101060000200606594F85C107248C01C88403040F3
:1010700070B12068006800F0020048B194F85C107C
:101080006C48C01C8840A860606D40F0040060653A
:1010900094F85C1010208840304078B320680068D5
:1010A00000F0080050B394F85C1010208840A8604D
:1010B0002068006800F4802080B12068006800F497
:1010C000002028B9206CC8B12046216C884715E063
:1010D000A06C98B12046A16C88470FE0206800689A
:1010E00000F4807028B92068006820F008002168AA
:1010F0000860206C10B12046216C884794F85C1081
:10110000202088403040002865D02068006800F02A
:10111000100000285FD094F85C1020208840A86060
:1011200094F83500052828D12068006820F01600C2
:10113000216808602068406920F0800021684861CB
:10114000206C08B9A06C28B12068006820F0080065
:101150002168086094F85C103F208840A86000BFB8
:10116000002084F8340000BF012084F83500206D91
:1011700010B12046216D8847F8BD2068006800F452
:10118000802080B12068006800F4002028B9606CDD
:1011900010B12046616C88471DE0E06BD8B1204655
:1011A000E16B884717E02068006800F4807068B938
:1011B0002068006820F010002168086000BF00204F
:1011C00084F8340000BF012084F83500E06B10B1D2
:1011D0002046E16B8847606D38B3606D00F0010018
:1011E000F0B1052084F835002068006820F0010087
:1011F0002168086000BF0098401C0090B84200D9E8
:1012000005E02068006800F001000028F3D100BF6D
:1012100000BF002084F8340000BF012084F83500AE
:10122000E06C10B12046E16C884700BFA4E70000E5
:1012300000000120010080002DE9F0410446002556
:1012400000F04AFA074614B90120BDE8F081606A4F
:1012500000B100BF00BF002084F8340000BF0220AE
:1012600084F835002068006820F0010021680860DB
:101270000AE000F031FAC01B052805D9202060657E
:10128000032084F83500E0E72068006800F00100E2
:101290000028EED12068056821480540D4E9010105
:1012A0000843E16808432169084361690843A1696B
:1012B0000843E1690843216A08430543606A04283A
:1012C00003D1D4E90B010843054320680560206879
:1012D000456925F00705606A0543606A04280DD159
:1012E000A06A0543E06A48B12046FFF7E1FA28B159
:1012F00040206065012084F83500A6E7206845613C
:101300002046FFF7BBFA064694F85C103F20884061
:10131000B06000206065012084F83500002094E76B
:101320003F8010F02DE9F04104460D4616461F4659
:101330004FF0000800BF94F83400012802D10220C9
:10134000BDE8F081012084F8340000BF94F8350036
:10135000012811D1022084F83500002060653B4649
:10136000324629462046FFF7F8FA2068006840F028
:1013700001002168086006E000BF002084F8340006
:1013800000BF4FF002084046DAE731B500F0A4F99B
:101390000546009C601C00B1641C00BF00F09CF975
:1013A000401BA042FAD338BD00B587B03148006871
:1013B00008B107B000BD01202E49086000BF002021
:1013C00001902D48006840F001002B490860084654
:1013D000006800F00100019000BF00BF4FF63F0021
:1013E00002900220039000200490032005900C201E
:1013F000069002A9214800F05BF8E020029002204C
:10140000039000200490032005900C20069002A970
:101410001B4800F04DF848F2331002900220039070
:1014200000200490032005900C20069002A9154886
:1014300000F03EF84FF683700290022003900020E7
:101440000490032005900C20069002A90E4800F09D
:101450002FF84CF2037002900220039000200490B9
:10146000032005900C20069002A9084800F020F8FF
:1014700000BF9EE76C000120383802400014024093
:10148000001C02400018024000100240000C024004
:101490007047000010B5044604480068204020B1A1
:1014A000024804602046FFF7F3FF10BD143C0140E2
:1014B000F8B502460B460025002400200021E6E096
:1014C000012606FA01F51E6806EA0504AC4273D14E
:1014D0005E68022E02D05E68122E13D1CF0802F190
:1014E000200656F827004E07F70E0F26BE40B043E1
:1014F0004F07FF0E1E69BE403043CF0802F12006A1
:1015000046F8270010684F000326BE40B0431E79FE
:1015100006F003064F00BE40304310605E68012EA7
:1015200008D05E68022E05D05E68112E02D05E687B
:10153000122E13D190684F000326BE40B0434F00D7
:10154000DE68BE4030439060506801268E40B04354
:101550001E79C6F300168E4030435060D0684F00AD
:101560000326BE40B0434F009E68BE403043D0606B
:101570005E6806F08056B6F1805FA8D100BF0026F5
:101580000096454E366846F48046434F3E603E46E0
:10159000366806F48046009600BF00BF3F4E8F08B5
:1015A00056F827008E07370F0F26BE40B0433C4E3B
:1015B000B24202D100262EE068E03A4EB24201D19A
:1015C000012628E0384EB24201D1022623E0374EF0
:1015D000B24201D103261EE0354EB24201D10426AB
:1015E00019E0344EB24201D1052614E0324EB24227
:1015F00001D106260FE0314EB24201D107260AE0A2
:101600002F4EB24201D1082605E02E4EB24201D142
:10161000092600E00A268F073F0FBE4030431F4EC9
:101620008F0846F82700284E3068A0435E6806F40D
:101630008036B6F5803F00D12043234E3060361D02
:101640003068A0435E6806F40036B6F5003F00D16E
:1016500020431D4E361D3060361D3068A0435E6845
:1016600006F48016B6F5801F00D12043164E0836CA
:101670003060361D3068A0435E6806F40016B6F58B
:10168000001F00D12043104E0C363060491C102939
:10169000FFF416AFF8BD000044380240083801409E
:1016A000000002400004024000080240000C02401A
:1016B000001002400014024000180240001C0240CA
:1016C0000020024000240240003C01400AB1816138
:1016D00001E00B0483617047014800687047000017
:1016E0000400012002480068401C0149086070475E
:1016F0000400012010B50D48006840F400700B494B
:1017000008600846006840F4806008600846006889
:1017100040F480700860032000F0EAFA002000F036
:1017200007F800F06FFA002010BD0000003C0240F6
:1017300070B588B0044600250026002221462D20E1
:1017400000F098FA2D2000F088FA00BF00200190E8
:101750001648006840F48070144908600846006824
:1017600000F48070019000BF00BF02A903A800F040
:10177000C5FD00F0EBFD45000D48B5FBF0F0461E41
:101780000C480D49086040F2E7310B48C1604660E3
:1017900000210161816001F041FC20B9064801F09F
:1017A000B1FC08B070BD0120FBE7000040380240EA
:1017B00040420F0000200040D041012070B5044697
:1017C0000E46154600BF94F8A000012801D1022062
:1017D00070BD012084F8A00000BF022084F8A100A1
:1017E00005EB850101EBC50204F1380101EB820034
:1017F00034223146FEF731FE2A463146204602F0B9
:1018000045F901202168486284F8A10000BF00204A
:1018100084F8A00000BF00BFDAE7704770B5044647
:101820002068856B2068466B05F00400E0B106F087
:101830000400C8B12068406B20F0040021684863B0
:1018400004202168C863D4F8A40040F00100C4F863
:10185000A400042084F8A10000BF002084F8A000A8
:1018600000BF2046FFF7D9FF05F00200E0B106F007
:101870000200C8B12068406B20F002002168486374
:1018800002202168C863D4F8A40040F00200C4F824
:10189000A400042084F8A10000BF002084F8A00068
:1018A00000BF2046FFF7B9FF05F00100A8B106F020
:1018B000010090B12068406B20F00100216848636E
:1018C00001202168C86384F8A10000BF002084F8CB
:1018D000A00000BF204600F0A9F805F00800B0B154
:1018E00006F0080098B12068406B20F008002168DD
:1018F000486308202168C863012084F8A10000BF64
:10190000002084F8A00000BF204600F04EF970BD12
:1019100070B50446002500260CB9012070BD94F86E
:10192000A10028B9002084F8A000204600F080F82B
:10193000022084F8A1002068806920F070402168AE
:101940008861D4E901010843E1680843216908433B
:101950002168896908432168886120688068324964
:10196000084021688860A08A050420688068A16911
:1019700029430843216888602068C0682A490840D4
:101980002168C860A08B05042068C068216A2943CB
:1019900008432168C860206800692349084021681D
:1019A0000861A08C050420680069A16A29430843E6
:1019B00021680861206840691B4908402168486126
:1019C000A08D050420684069216B294308432168E4
:1019D000486194F83500050294F836000604206842
:1019E000C06A00F07F402168C86246EA050094F8AA
:1019F000341008432168C96A08432168C862206816
:101A0000406B40F00600216848632068806940F020
:101A10000100216888610020C4F8A400012084F836
:101A2000A10000207AE7000000F800F070470000F5
:101A300010B586B004464349206888427DD100BF76
:101A4000002000904048006840F080603E490860F7
:101A50000846006800F08060009000BF00BF702062
:101A600001900220029000200390022004900E209A
:101A7000059001A93548FFF71BFD40F23760019042
:101A80000220029000200390022004900E20059076
:101A900001A92F48FFF70CFD4FF480600190022050
:101AA000029000200390022004900E20059001A9CE
:101AB0002848FFF7FDFC4FF60C70019002200290C1
:101AC00000200390022004900E20059001A92248D6
:101AD000FFF7EEFC4FF4C650019002200290002068
:101AE0000390022004900E20059001A91B48FFF7E7
:101AF000DFFC402001900220029000200390022091
:101B000004900E20059001A91548FFF7D1FC4FF471
:101B10004070019002200290002003900220049067
:101B20000E20059001A90F48FFF7C2FC00220521F5
:101B3000582000F09FF8582000E001E000F08DF8F8
:101B400006B010BD00680140443802400010024059
:101B50000020024000140240001C02400018024015
:101B6000000C024000040240024600BF92F8A000B0
:101B7000012801D102207047012082F8A00000BF97
:101B8000022082F8A1001068406B40F00800136842
:101B9000586310684162012082F8A10000BF002054
:101BA00082F8A00000BF00BFE5E770472DE9F041D3
:101BB00004460E46174600BF94F8A000012802D143
:101BC0000220BDE8F081012084F8A00000BF0220BF
:101BD00084F8A10007EB870000EBC70104F138008F
:101BE00000EB81056E623A462946204601F04EFF21
:101BF000012084F8A10000BF002084F8A00000BFED
:101C000000BFDEE710B5032000F072F80022114695
:101C10006FF00B0000F02EF8002211466FF00A0062
:101C200000F028F8002211466FF0090000F022F8B9
:101C300000221146501F00F01DF800221146101F0F
:101C400000F018F800220F21901E00F013F8002277
:101C50000F21501E00F00EF810BD00BF00F01F0253
:101C6000012191404209920002F1E022C2F80011E4
:101C700000BF70472DE9F05F80460D4616460027ED
:101C800002F084FB074639462A46334601F0070036
:101C9000C0F1070ABAF1040F02D94FF0040A01E0BB
:101CA000C0F1070AD14600F1040ABAF1070F02D2C7
:101CB0004FF0000A01E0A0F1030AD4464FF0010AF8
:101CC0000AFA09FAAAF1010A0AEA020A0AFA0CFA5D
:101CD0004FF0010B0BFA0CFBABF1010B0BEA030B02
:101CE0004AEA0B042146404602F058FBBDE8F09F4B
:101CF00000BF00F00702064B19684FF6FF031940BA
:101D0000044B0B4343EA0221014B196000BF7047AB
:101D10000CED00E00000FA0538B5002400BF0020FB
:101D200000902348006840F0805021490860084630
:101D3000006800F08050009000BF00BF0120010447
:101D400091FAA1F1B1FA81F11A4A42F82100FFF7A4
:101D5000C3FC044607E0FFF7BFFC001BB0F57A7F29
:101D600001D9032038BD1448406800F48030B0F534
:101D7000803FF0D10120410491FAA1F1B1FA81F143
:101D80000C4A42F82100FFF7A7FC044607E0FFF7E2
:101D9000A3FC001BB0F57A7F01D90320E2E70648D7
:101DA000406800F40030B0F5003FF0D10020D9E7E2
:101DB0004038024000000E4200700040F8B5044672
:101DC00000250026207800F0010020B9207800F0DE
:101DD0000200022866D10020CE498866FFF77CFC0D
:101DE000054606E0FFF778FC401B022801D90320D6
:101DF000F8BDC9480068C0F3C0600028F2D120785F
:101E000000F0010098B147F6C07191FAA1F1B1FA62
:101E100081F1606888404FF0E04292FAA2F2B2FA93
:101E200082F2A16891400843BB4984310860207860
:101E300000F00200022821D1B7488430006800F089
:101E4000E0404FF0E04191FAA1F1B1FA81F120FABE
:101E500001F660688101207B41EA006040EA06707B
:101E6000AD4984310860AC488C30006820F01F0018
:101E7000E169491E0843A8498C3108600120A54941
:101E80008866FFF729FC054606E0FFF725FC401BA6
:101E9000022801D90320ABE79F480068C0F3C06067
:101EA0000028F2D0207800F00400042804D0207824
:101EB00000F0080008287DD1002096490867FFF748
:101EC0000BFC054606E0FFF707FC401B022801D982
:101ED00003208DE790480068C0F340700028F2D1DD
:101EE000207800F00400042834D18B488830006842
:101EF00000F0E0404FF0E04191FAA1F1B1FA81F138
:101F000020FA01F647F6C07191FAA1F1B1FA81F118
:101F1000206988404FF0706292FAA2F2B2FA82F21F
:101F20006169914008434FF0E04191FAA1F1B1FAA3
:101F300081F106FA01F10843774988310860081DEC
:101F4000006820F4F851206A401E41EA00207249DE
:101F50008C310860207800F00800082834D16E48E1
:101F60008830006800F070604FF0706191FAA1F164
:101F7000B1FA81F120FA01F647F6C07191FAA1F1A8
:101F8000B1FA81F1206988404FF0706191FAA1F1B6
:101F9000B1FA81F106FA01F108434FF0E04292FAFA
:101FA000A2F2B2FA82F2A169914008435A498831FB
:101FB000086000E01CE0081D006820F44030616A01
:101FC000084355498C310860012052490867FFF7E2
:101FD00083FB054606E0FFF77FFB401B022801D983
:101FE000032005E74C480068C0F340700028F2D099
:101FF000207800F0200020287ED100BF0020009033
:1020000045484030006840F0805043494031086006
:102010000846006800F08050009000BF00BF3F48B5
:10202000006840F480703D490860FFF755FB0546A5
:1020300006E0FFF751FB401B022801D90320D7E639
:102040003648006800F480700028F2D032487030C2
:10205000006800F440764EB3208D00F44070B0422A
:1020600024D02D487030006820F4407601202C499F
:10207000086000200860284870300660006800F0A2
:10208000010098B1FFF728FB054608E0FFF724FBA5
:10209000401B41F28831884201D90320A8E61E483E
:1020A00070300068C0F340000028EFD000BF208DE2
:1020B00000F44070B0F5407F0CD11748083000683C
:1020C00020F4F810174AA16A114008431249083158
:1020D000086007E010480830006820F4F8100E4946
:1020E000083108600C4870300068218DC1F30B0185
:1020F00008430949703100E001E0086000BF207822
:1021000000F01000102803D194F82C000649086054
:1021100000206DE600004742003802400070004099
:10212000400E4742FFFCFF0FE011474270B50446E6
:102130000D4600266D48006800F00F00A84209D245
:102140006A490D700846006800F00F00A84201D0EF
:10215000012070BD207800F00200022807D16448F9
:10216000006820F0F000A168084361490860207809
:1021700000F00100002877D06068012807D15C4892
:1021800008380068C0F34040B8B90120E1E7606852
:10219000022802D06068032807D155480838006833
:1021A000C0F3406048B90120D3E7514808380068BF
:1021B000C0F3400008B90120CBE74D48006820F08B
:1021C0000300616808434A490860FFF785FA06463C
:1021D0006068012810D108E0FFF77EFA801B41F209
:1021E0008831884201D90320B3E74148006800F0F4
:1021F0000C000428F0D137E06068022810D108E014
:10220000FFF76AFA801B41F28831884201D9032026
:102210009FE73748006800F00C000828F0D123E061
:102220006068032810D108E0FFF756FA801B41F2DE
:102230008831884201D903208BE72D48006800F0DF
:102240000C000C28F0D10FE008E0FFF745FA801BE6
:1022500041F28831884201D903207AE72448006896
:1022600000F00C000028F0D12048006800F00F00BA
:10227000A84209D91D490D700846006800F00F00FA
:10228000A84201D0012064E7207800F0040004286F
:1022900007D11748006820F4E050E168084314496A
:1022A0000860207800F00800082808D1104800686D
:1022B00020F46040216940EAC1000D49086000F047
:1022C00071F80B49096801F0F001F02292FAA2F2CC
:1022D000B2FA82F2D140074A515CC8400649086010
:1022E0000020FFF725FA002033E70000003C024001
:1022F0000838024022A40020000001200F220260C2
:102300000D4A126802F0030242600B4A126802F0A2
:10231000F0028260084A126802F4E052C260064A83
:10232000126802F46042D2080261044A126802F0A4
:102330000F020A607047000008380240003C02406B
:1023400001480068704700000000012000B5FFF759
:10235000F7FF0749096801F4E0514FF4E05292FA9F
:10236000A2F2B2FA82F2D140024A515CC84000BDEA
:102370000838024032A4002000B5FFF7E1FF07490A
:10238000096801F460414FF4604292FAA2F2B2FA95
:1023900082F2D140024A515CC84000BD0838024078
:1023A00032A4002070B50021002200230020274C19
:1023B000246804F00C0424B1042C04D0082C41D16E
:1023C00003E0234840E023483EE0204C241F2468DB
:1023D00004F03F011D4C241F246804F4800484B1E0
:1023E0001C4CB4FBF1F5194C241F246847F6C07649
:1023F000344096FAA6F6B6FA86F6F44005FB04F2E7
:102400000FE0134CB4FBF1F5104C241F246847F681
:10241000C076344096FAA6F6B6FA86F6F44005FB86
:1024200004F20A4C241F246804F440344FF440356D
:1024300095FAA5F5B5FA85F5EC40641C6300B2FB8E
:10244000F3F001E0024800BF00BF70BD0838024051
:102450000024F40000127A0038B5044600252078E4
:1024600000F00100002874D0F748006800F00C006C
:1024700004280DD0F448006800F00C00082813D19F
:10248000F148001F006800F48000B0F5800F0BD108
:10249000ED4808380068C0F34040002859D0606813
:1024A000002856D1012038BD00BF6068B0F5803FDC
:1024B00008D1E5480838006840F48030E24908391E
:1024C00008601EE06068B0F5A02F0DD1DE48083826
:1024D000006840F48020DC4908390860084600683C
:1024E00040F4803008600CE0D7480838006820F4D9
:1024F0008030D549083908600846006820F48020FB
:10250000086000BF606890B1FFF7E6F8054606E096
:10251000FFF7E2F8401B642801D90320C3E7CA484B
:1025200008380068C0F340400028F1D011E0FFF700
:10253000D3F8054606E0FFF7CFF8401B642801D921
:102540000320B0E7C04808380068C0F340400028C6
:10255000F1D1207800F00200022869D1BA48006861
:1025600000F00C0058B1B848006800F00C000828D2
:1025700021D1B548001F006800F48000D8B9B248E6
:1025800008380068C0F3400020B1E068012801D09D
:10259000012088E7AC480838006820F0F800F822ED
:1025A00092FAA2F2B2FA82F2216991400843A64956
:1025B000083908603CE0E06828B30120A3490860BE
:1025C000FFF78AF8054606E0FFF786F8401B022869
:1025D00001D9032067E79C4808380068C0F3400031
:1025E0000028F1D098480838006820F0F800F82258
:1025F00092FAA2F2B2FA82F221699140084392491A
:102600000839086014E0002090490860FFF764F87A
:10261000054606E0FFF760F8401B022801D90320B9
:1026200041E7894808380068C0F340000028F1D12C
:10263000207800F0080008282CD16069A8B101209A
:1026400083490860FFF748F8054606E0FFF744F8BD
:10265000401B022801D9032025E77B486C30006825
:10266000C0F340000028F1D014E000207849086051
:10267000FFF732F8054606E0FFF72EF8401B022868
:1026800001D903200FE770486C300068C0F34000A8
:102690000028F1D1207800F0040004287FD100BF89
:1026A0000020009068483830006840F0805066494B
:1026B000383108600846006800F08050009000BF84
:1026C00000BF6448006840F4807062490860FFF70A
:1026D00003F8054606E0FEF7FFFF401B022801D97C
:1026E0000320E0E65B48006800F480700028F2D028
:1026F00000BFA068012808D153486830006840F046
:1027000001005149683108601DE0A06805280DD11D
:102710004D486830006840F004004B49683108605B
:102720000846006840F0010008600CE04648683048
:10273000006820F0010044496831086008460068DC
:1027400020F00400086000BFA068A0B1FEF7C4FF3D
:10275000054608E0FEF7C0FF401B41F28831884281
:1027600001D903209FE6384868300068C0F3400074
:102770000028EFD013E0FEF7AFFF054608E0FEF7B4
:10278000ABFF401B41F28831884201D903208AE621
:102790002D4868300068C0F340000028EFD1A069E0
:1027A000F0B32948006800F00C00082871D0A06937
:1027B000022858D1002025490866FEF78DFF0546FE
:1027C00006E0FEF789FF401B022801D903206AE6D4
:1027D0001D4808380068C0F340600028F1D1D4E9F2
:1027E0000701084347F6C07292FAA2F2B2FA82F2E7
:1027F000616A914008430122A16AC2EB51014FF482
:10280000403292FAA2F2B2FA82F2914008434FF0BB
:10281000706292FAA2F2B2FA82F2E16A914000E0AA
:1028200039E008430849091F086001200749086684
:10283000FEF752FF05460FE0FEF74EFF401B022851
:102840000AD903202FE60000083802400000474262
:10285000800E47420070004010480068C0F340609E
:102860000028E9D017E000200D490866FEF734FF84
:10287000054606E0FEF730FF401B022801D9032081
:1028800011E606480068C0F340600028F2D102E07B
:10289000FFE7012007E6002005E6000000380240BF
:1028A0000000474202460023106800F1500303EB8A
:1028B00081031868704710B50023046804F15003C1
:1028C00003EB81031A6010BD014600BF087F012899
:1028D00001D1022070470120087700BF022048770D
:1028E00000BFCA200A68506253200A68506200BFC5
:1028F0000868806840F020000A68906000BFFF20F0
:102900000A68506200BF0120487700BF00200877A6
:1029100000BF00BFDEE7000018B5034600BF187F08
:10292000012801D1022018BD0120187700BF022024
:10293000587700BFCA201C68606253201C68606220
:1029400000BF1868806800F4806000B341480068E8
:1029500040094FF47A74B0FBF4F06043009000BF7C
:102960000098441E009460B900BFFF201C6860629C
:1029700000BF0320587700BF0020187700BF032056
:10298000D1E71868C068C0F380000028E8D1186853
:10299000806820F480601C68A0602E4800684009B0
:1029A0004FF47A74B0FBF4F06043009000BF0098DD
:1029B000441E009460B900BFFF201C68606200BF25
:1029C0000320587700BF0020187700BF0320AAE734
:1029D0001868C068C0F380000028E8D0186841611A
:1029E0001868806820F007001C68A060186880687C
:1029F00010431C68A0601848006840F48000164C22
:102A0000206015480830006840F48000124C0834FB
:102A100020601868C06800F0800060F490601C6856
:102A2000E0601868806840F480401C68A060186806
:102A3000806840F480601C68A06000BFFF201C68B4
:102A4000606200BF0120587700BF0020187700BFE8
:102A500000BF68E700000120003C01407047000013
:102A600010B504462068C068C0F3802078B12068A3
:102A7000806800F4804050B12046FFF7EFFF2068E7
:102A8000C06800F0800060F490602168C8604FF476
:102A90008000024908600120607710BD143C0140AD
:102AA00070B505460B4616460024286840680E4956
:102AB00000EA0104200CD870C4F30420587004F01C
:102AC0003F009870C4F3423018705EB9D87801F0B6
:102AD00027FFD870587801F023FF5870987801F0DC
:102AE0001FFF9870002070BD3FFFFF0070B50446C7
:102AF0000B46164600252068806A586020680069E9
:102B0000C0F30E009860206800680F4900EA0105D4
:102B1000C5F305401870C5F30620587005F07F0016
:102B2000987005F48000000CD8705EB9187801F038
:102B3000F7FE1870587801F0F3FE5870987801F09D
:102B4000EFFE9870002070BD7F7F7F0010B50446B7
:102B50000CB9012010BD607F20B9002020772046ED
:102B600000F04EF80220607700BFCA20216848625A
:102B700053202168486200BF204601F0E9FE40B1C1
:102B800000BFFF202168486200BF04206077012059
:102B9000E0E7206880681949084021688860216959
:102BA00060680843616908432168896808432168AF
:102BB00088602168E068086120680169208941EA2D
:102BC0000040216808612068C06820F0800021680A
:102BD000C8602068006C20F48020216808642068A8
:102BE000006CA16908432168086400BFFF202168C8
:102BF000486200BF012060770020ABE7BFFF8FFF76
:102C000010B504460749206888420AD101200649C8
:102C10000860002207210320FFF72CF80320FFF7AC
:102C20001CF810BD002800403C0E47422DE9F04141
:102C300004460D461646002700BF207F012802D11A
:102C40000220BDE8F0810120207700BF02206077DC
:102C50004EB9687800F01000102804D1687800F0B0
:102C6000EF000A30687086B9E87801F064FE03046A
:102C7000687801F060FE43EA0023A87801F05BFE6B
:102C80000343287843EA403711E0687801F048FEB2
:102C90000746A87801F044FE0746E8780004697802
:102CA00040EA0120A9780843297840EA413700BF6B
:102CB000CA202168486253202168486200BF20462C
:102CC00001F046FE60B100BFFF202168486200BFEE
:102CD0000420607700BF0020207700BF0120B0E70C
:102CE00016483840216848602068C06820F080009D
:102CF0002168C8602068806800F0200080B9204604
:102D000000F0B8F860B100BFFF202168486200BF42
:102D10000420607700BF0020207700BF012090E7EB
:102D200000BFFF202168486200BF0120607700BF1C
:102D30000020207700BF00BF83E700003FFFFF00B7
:102D40002DE9F04104460D461646002700BF207FBE
:102D5000012802D10220BDE8F0810120207700BFC8
:102D600002206077CEB92068806800F0400000B192
:102D700002E00020E87000BF287801F0DCFD0304C9
:102D8000687801F0D8FD43EA0023A87801F0D3FD6C
:102D90000343E87843EA004716E02068806800F0C3
:102DA000400020B1287801F0BBFD074602E000207A
:102DB000E87000BF28780004697840EA0120A9780B
:102DC0000843E97840EA014700BFCA202168486209
:102DD00053202168486200BF204601F0B9FD60B170
:102DE00000BFFF202168486200BF0420607700BF59
:102DF0000020207700BF0120ADE71D483840216842
:102E000008602068806820F4802021688860D5E907
:102E100003010843216889680843216888602068A5
:102E2000C06820F080002168C8602068806800F0D9
:102E3000200080B9204600F01DF860B100BFFF20DF
:102E40002168486200BF0420607700BF002020771F
:102E500000BF01207FE700BFFF202168486200BF5C
:102E60000120607700BF0020207700BF00BF72E71D
:102E70007F7F7F0070B5044600252068C06820F081
:102E8000A0002168C860FEF727FC054607E0FEF7B2
:102E900023FC401BB0F57A7F01D9032070BD206868
:102EA000C06800F020000028F1D00020F6E770B5DF
:102EB00004460D460CB9012070BD94F82C0028B9C9
:102EC000002084F82D00204600F011F8022084F83C
:102ED0002C00211D2068FDF787FD2946D4E900025A
:102EE000FDF7ECFD012084F82C000020E4E710B58C
:102EF0000446FEF759FA10BD70B504460D4694F825
:102F00002C00022800D170BD022084F82C00294634
:102F10002068FDF7A3FD012084F82C000020F2E7D3
:102F200070B504460D46164694F82C00022800D1D0
:102F300070BD022084F82C00324629462068FDF737
:102F400094FD2868022803D1052084F82C0002E0B3
:102F5000012084F82C000020EAE7042808D14FF073
:102F6000E021096941F004014FF0E022116107E01E
:102F70004FF0E021096921F004014FF0E0221161D6
:102F8000704770B504462546681EB0F1807F01D3B6
:102F900001200FE0681E4FF0E02148610F214FF043
:102FA000FF3001F0FBF900204FF0E021886107209D
:102FB0000861002070BD70477047024600BF92F85C
:102FC0003800012801D102207047012082F8380022
:102FD00000BF022082F839001068406820F07000BD
:102FE00013685860106840680B681843136858608D
:102FF0001068806820F0800013689860106880680E
:103000004B68184313689860012082F8390000BFAC
:10301000002082F8380000BF00BFD5E710B5044695
:103020000CB9012010BD94F8390028B9002084F8AB
:103030003800204600F00CF8022084F83900211DE9
:10304000206801F03FFF012084F839000020E9E703
:1030500038B5044627492068884218D100BF0020AF
:1030600000902548006840F0100023490860084699
:10307000006800F01000009000BF00BF002208218F
:103080003620FEF7F7FD3620FEF7E7FD30E01B495E
:103090002068884218D100BF0020009016480068C0
:1030A00040F02000144908600846006800F0200045
:1030B000009000BF00BF002208213720FEF7DAFD94
:1030C0003720FEF7CAFD13E00D49206888420FD172
:1030D00000BF002000900848006840F080000649CA
:1030E00008600846006800F08000009000BF00BF44
:1030F00038BD00000010004040380240001400407D
:10310000001C004001460868C06840F001000A68E1
:10311000D0600868006840F001000A681060002074
:103120007047704710B5044620680069C0F340003E
:10313000D8B12068C068C0F34000B0B16FF00200A1
:1031400021680861012020762068806900F0030072
:1031500018B12046FFF7E5FF05E0204600F0C8F86B
:10316000204600F065F90020207620680069C0F351
:103170008000D8B12068C068C0F38000B0B16FF0A3
:10318000040021680861022020762068806900F42C
:10319000407018B12046FFF7C4FF05E0204600F05C
:1031A000A7F8204600F044F9002020762068006946
:1031B000C0F3C000D8B12068C068C0F3C000B0B18F
:1031C0006FF0080021680861042020762068C0693B
:1031D00000F0030018B12046FFF7A3FF05E02046EA
:1031E00000F086F8204600F023F9002020762068C1
:1031F0000069C0F30010D8B12068C068C0F30010A7
:10320000B0B16FF0100021680861082020762068B6
:10321000C06900F4407018B12046FFF782FF05E056
:10322000204600F065F8204600F002F900202076E4
:103230002068006900F0010058B12068C06800F003
:10324000010030B16FF0010021680861204600F0F4
:1032500017F920680069C0F3C01058B12068C06831
:10326000C0F3C01030B16FF08000216808612046C3
:10327000FFF7A1FE20680069C0F3801058B12068F4
:10328000C068C0F3801030B16FF040002168086161
:10329000204600F001F920680069C0F3401058B1E1
:1032A0002068C068C0F3401030B16FF02000216882
:1032B00008612046FFF780FE10BD000010B586B003
:1032C00004460949206888420CD140200190022020
:1032D00002900020039004900920059001A9034862
:1032E000FEF7E6F806B010BD001C004000000240EA
:1032F000704770B504460D46164600BF94F8380076
:10330000012801D1022070BD012084F8380000BFDF
:10331000022084F8390036B1042E1BD0082E31D09B
:103320000C2E5ED145E02946206801F04BFE206856
:10333000806940F00800216888612068806920F079
:103340000400216888612068806929690843216830
:10335000886147E02946206801F06CFE206880699A
:1033600040F40060216888612068806920F48060F2
:103370002168886120688069296940EA0120216804
:1033800088612FE02946206801F090FE2068C0691E
:1033900040F008002168C8612068C06920F004007E
:1033A0002168C8612068C069296908432168C8612B
:1033B00018E02946206801F0B5FE2068C06940F495
:1033C00000602168C8612068C06920F480602168BD
:1033D000C8612068C069296940EA01202168C86184
:1033E00000E000BF00BF012084F8390000BF0020CA
:1033F00084F8380000BF00BF85E710B504460CB95B
:10340000012010BD94F8390028B9002084F8380054
:10341000204600F00CF8022084F83900211D2068B5
:1034200001F050FD012084F839000020E9E77047E1
:103430007047000030B504460D4601222946206839
:1034400001F0B2FD0C492068884203D00B49206886
:10345000884201D1012000E0002028B12068406CA2
:1034600040F40040216848642068006840F0010092
:1034700021680860002030BD0000014000040140C8
:1034800010B5044603492068884201D1FEF72AF9A5
:1034900010BD000000200040704770472DE9F04744
:1034A0000446206805682068C668206847694FF0B0
:1034B0000008C14605F00F08B8F1000F0AD105F069
:1034C000200038B106F0200020B1204601F084FE33
:1034D000BDE8F087B8F1000F6DD007F0010018B912
:1034E00006F49070002866D005F0010030B106F4B3
:1034F000807018B1E06B40F00100E06305F004005B
:1035000030B107F0010018B1E06B40F00200E06359
:1035100005F0020030B107F0010018B1E06B40F097
:103520000400E06305F0080030B107F0010018B1B5
:10353000E06B40F00800E063E06B68B305F020004A
:1035400028B106F0200010B1204601F045FE2068A9
:103550004069C0F38019E06B00F0080010B9B9F1C0
:10356000000F22D0204601F017FE2068406900F0CD
:103570004000B0B12068406920F0400021684861F7
:10358000606B50B11748616B0865606BFDF71CFDFF
:1035900010B1606B016D88470CE02046FFF77DFF9E
:1035A00008E02046FFF779FF04E02046FFF775FFAB
:1035B0000020E0638CE705F0800030B106F0800069
:1035C00018B1204602F030F882E705F0400030B133
:1035D00006F0400018B1204601F0EEFD78E700BF8C
:1035E00076E700008551002010B504460CB9012093
:1035F00010BDA06900B100E000BF94F8390028B9FF
:10360000002084F83800204600F028F8242084F8B0
:1036100039002068C06820F400502168C860204646
:1036200001F028FE2068006920F4904021680861BC
:103630002068406920F02A00216848612068C0683D
:1036400040F400502168C8600020E063202084F826
:10365000390084F83A000020CAE7000010B586B0AF
:1036600004464549206888427ED100BF0020009072
:103670004248006840F01000404908600846006871
:1036800000F01000009000BF00BF4FF4C060019038
:103690000220029001200390002004900720059052
:1036A00001A93748FDF704FF3648374908604FF055
:1036B00000604860002134488160C1604FF480613F
:1036C0000161002141618161C1614FF4803101627A
:1036D00000214162FDF7B0FD20B14FF405712BA030
:1036E00002F006F800BF28486063846300BF2548E5
:1036F00078302D4908604FF00060486040212A482A
:1037000081600021C1604FF480610161002141614D
:103710008161C1614FF48031016200214162FDF796
:103720008BFD20B140F2262118A001F0E1FF00BF7F
:103730001D482063846300BF002207212520FEF777
:1037400099FA2520FEF789FA0B48406940F0C0003D
:10375000094948612068C06840F010002168C860CD
:103760003223124A044900E003E0091D0648FDF730
:10377000D9FD06B010BD00000010014044380240E1
:103780000000024040640240DC4001202E2E2F53F6
:1037900072632F73746D3332663478785F68616C4E
:1037A0005F6D73702E6300003C4101200C420120CC
:1037B000704770472DE9F04704460D4616461F46F0
:1037C000DDE909A9DDF8208064211E48006802F0C7
:1037D00061FC4FF440301C4908604AEA0960886384
:1037E000B8F1000F09D0C5EB051004EB40101749E4
:1037F00001EB80001449C86309E0C5EB051004EB38
:1038000040104FF0504101EB80000F49C863C6F5EE
:10381000F0700D490864086447EA064048640C48A3
:103820000068006840F40C500949096808600848BD
:103830000068006840F00100054909680860BDE8BB
:10384000F0870000C000012000B0024000F00FD05F
:10385000E03E01202DE9FF4F81B005460E4690461F
:10386000049838B1C8EB081006EB40102F4901EB63
:10387000800707E0C8EB081006EB40104FF05041FE
:1038800001EB8007802D03DAA5F11E00C5B202E02E
:10389000A5F13E00C5B2264800EBC500D0F8049063
:1038A000234800EBC5008478162014FB00F000F0DC
:1038B000FF0BDFF880A064211F48006802F0EAFBDC
:1038C00000BF19F8011B1D48405C0AF8010BABF161
:1038D0000100C0B2B0F1000BF3D119490E98086293
:1038E0004FF4F070A0EB44000864162063003A46E1
:1038F000104900901348FDF7E5FA204604EBD0711B
:103900000B4A02EBC502527802EB610107EB81071B
:10391000214604EBD170064A02EBC50252783244CC
:1039200002EB600080B205B0BDE8F08F00F00FD070
:1039300068ED00203E420120C000012059A6002071
:1039400000B00240E03E01202DE9FF4F83B0054664
:103950000E4691461DB9304607B0BDE8F08F069877
:1039600038B1C9EB091006EB40103D4901EB800866
:1039700007E0C9EB091006EB40104FF0504101EB96
:10398000800867E02F78802F03DA28781E38C7B2C6
:1039900002E028783E38C7B2324800EBC700D0F8C2
:1039A00004A0304800EBC7008478162014FB00F018
:1039B000C0B20290DFF8B0B064212C48006802F079
:1039C00069FB00BF1AF8011B2948405C0BF8010B8A
:1039D0000298401EC0B202900028F3D11198FF282F
:1039E0000CD02448C169119841EA00602149C8619E
:1039F0000846C06940F40030C86105E01D48C06950
:103A000020F400301B49C8611A49109808624FF42D
:103A1000F070A0EB4400086416206300424612498F
:103A200000901548FDF74EFA6D1C204604EBD0714E
:103A30000C4A02EBC702527802EB610131448EB2AC
:103A400004EBD071074A02EBC702527802EB610126
:103A500008EB81082878002894D130467CE70000E4
:103A600000F00FD068ED00203E420120C000012090
:103A700059A6002000B00240E03E012010B50248E7
:103A8000FDF7CCFE10BD0000203F0120F0B5002363
:103A9000002400258E880768FF68C7F30B473E4463
:103AA000330406688436802707FB0266766806F4CE
:103AB0007047066884364FF0800C0CFB0266776016
:103AC0000E680768FF68C7F30B473E44761C1E4329
:103AD000076884370CFB02777E608E890768FF6871
:103AE000C7F30A073E44330406688436802707FB81
:103AF0000266B66806F47047066884360CFB0266F8
:103B0000B7608E680768FF68C7F30A073E44761CF3
:103B10001E43076884370CFB0277BE600668843654
:103B2000802707FB0266366926F007070668843699
:103B30000CFB026637610F69066884360CFB02666F
:103B400037613126765C33023226765C34040E7E91
:103B5000350606688436802707FB0266B6690027AB
:103B6000066884360CFB0266B76191F830601E432C
:103B700026432E43076884370CFB0277BE61066834
:103B80008436802707FB0266766926F0FF07066801
:103B900084360CFB026677614F69066884360CFB3D
:103BA0000266776106688436802707FB0266F7693C
:103BB00040F20776B743066884360CFB0266F7616D
:103BC000D1E907673E43076884370CFB0277FE6143
:103BD00006688436802707FB0266B66A00270668F7
:103BE00084360CFB0266B7624F6A066884360CFBAB
:103BF0000266B7620E690EB9042313E00E69012E46
:103C000001D103230EE00E69042E08D00E69022EA6
:103C100005D00E69032E02D00E69072E01D10223B2
:103C200000E0012306688436802707FB0266F66AF7
:103C300006F0E027066884364FF0800C0CFB026625
:103C4000F762D1E90076F61B5E43F71C0E8D5E43EA
:103C500047EA0647066884360CFB0266F762066888
:103C60008436802707FB0266366BF70AFF02066878
:103C700084360CFB02663763CF6A066884360CFB19
:103C80000266376306688436D701F65946F00107A5
:103C9000066884364FEAC21C46F80C70F0BD00007E
:103CA00010B50648064908600846FCF755FF20B1E4
:103CB00040F2E71103A001F01BFD10BD00300240EF
:103CC000740001202E2E2F5372632F6D61696E2EAA
:103CD0006300000010B51148114908604FF48030AE
:103CE000486000210E488160C16081620A21C16282
:103CF000002101634163FDF790F820B14FF4FD719D
:103D000008A001F0F5FC01210548FCF753FF20B1A4
:103D100040F2FF1103A001F0EBFC10BD00B0024027
:103D2000E03E01202E2E2F5372632F6D61696E2E9F
:103D30006300000008B500BF002000900E48006836
:103D400040F480000C4908600846006800F48000D8
:103D5000009000BF00BF002205213A20FDF78AFF36
:103D60003A20FDF77AFF002205214620FDF782FF69
:103D70004620FDF772FF08BD3038024000B587B01D
:103D800018481949086001204860002116488160E0
:103D90000421C16010210161402141614FF4C071D3
:103DA00081610021C1614FF40061016249004162FB
:103DB0008900816202200090072001900420029077
:103DC000062003900220049005900690694606485C
:103DD000FFF76DF820B140F2173104A001F088FC24
:103DE00007B000BD400100A09C4101202E2E2F53A2
:103DF00072632F6D61696E2E6300000000B587B09D
:103E000000BF002001906248006840F01000604947
:103E100008600846006800F01000019000BF00BF75
:103E200000BF002001900846006840F004000860D0
:103E30000846006800F00400019000BF00BF00BF0A
:103E4000002001900846006840F480700860084631
:103E5000006800F48070019000BF00BF00BF002028
:103E600001900846006840F020000860084600689D
:103E700000F02000019000BF00BF00BF00200190B3
:103E80000846006840F0800008600846006800F0BE
:103E90008000019000BF00BF00BF002001900846D5
:103EA000006840F0010008600846006800F001006A
:103EB000019000BF00BF00BF0020019008460068CD
:103EC00040F0400008600846006800F040000190A3
:103ED00000BF00BF00BF002001900846006840F00E
:103EE000080008600846006800F00800019000BF64
:103EF00000BF00BF002001900846006840F00200AB
:103F000008600846006800F00200019000BF00BF92
:103F100000224FF470711F48FDF7D8FB4FF470700A
:103F200002900120039000200490059002A91948F6
:103F3000FDF7BEFA40F20C60029017480390012092
:103F4000049002A91548FDF7B3FA00220A210820BF
:103F5000FDF790FE0820FDF780FE00220A210920CF
:103F6000FDF788FE0920FDF778FE00220A211720C0
:103F7000FDF780FE1720FDF770FE00220A212820A1
:103F8000FDF778FE2820FDF768FE07B000BD0000B1
:103F90003038024000140240000021100018024096
:103FA00000B59BB0474848490860002048600021A0
:103FB00045488160C1600161282141610921816119
:103FC0002A21C1610B21016240F20A21416240F2C3
:103FD0001B1181624FF40371C16240F21D11016334
:103FE000002180F8341080F8351080F83610FDF785
:103FF0008FFC20B140F21D2134A001F079FB00209C
:104000000E904FF4F0700F9000201090F02011905F
:1040100000201290FF201390002014904FF4C060F5
:104020001590072016904FF0504017904FF4F07005
:104030001890F020199096208DF8680000218DF8D6
:10404000691064218DF86A1000220EA91E48FDF740
:10405000B5FB20B140F231211CA001F049FB00204A
:1040600001904FF4F0700290002003904FF488709C
:10407000049000200590FF200690002007904FF448
:10408000C06008900720099014480A904FF4F0701F
:104090000B904FF488700C9096208DF834006421BA
:1040A0008DF8351000218DF83610012201A906483F
:1040B000FDF784FB20B140F2452104A001F018FB7C
:1040C0001BB000BD00680140203F01202E2E2F5361
:1040D00072632F6D61696E2E6300000000F00FD0D7
:1040E00000B587B0324833490860002048607F211E
:1040F00030488160FF21C16000210161416181611F
:10410000FEF724FD20B14FF417712BA001F0F0FA57
:1041100000212848FEF7C6FB43F2F221884230D046
:1041200012208DF8080000208DF809008DF80A0093
:1041300005900690012202A91E48FEF701FE20B15B
:1041400040F269211CA001F0D3FA05208DF804008B
:1041500008208DF8050017208DF806008DF807005F
:10416000012201A91348FEF761FD20B140F273213D
:1041700011A001F0BDFA43F2F22200210D48FEF732
:104180009AFB0C480068C06800F0800060F4906002
:1041900008490968C860042200210648FEF7BCFBF4
:1041A00020B140F27E2104A001F0A2FA07B000BDC8
:1041B00000280040C83F01202E2E2F5372632F6D20
:1041C00061696E2E6300000000B587B01A481B4974
:1041D000086041F293104860002118488160C821AE
:1041E000C16000210161FEF719FF20B14FF4307169
:1041F00013A001F07DFA1148FFF7FFF820B140F25B
:10420000C5210FA001F074FA7020009046200190A3
:104210000220029000200490002269460748FFF720
:1042200068F820B140F2CE2105A001F061FA034800
:10423000FFF744F807B000BD001C004060400120BB
:104240002E2E2F5372632F6D61696E2E6300000056
:104250001CB51148114908604AF6C7704860002132
:104260000E4881604FF47A61C160FEF7D7FE20B13D
:1042700040F28F210AA001F03BFA0020009001904B
:1042800069460648FEF799FE20B140F2962104A047
:1042900001F02EFA1CBD000000100040E83F012094
:1042A0002E2E2F5372632F6D61696E2E63000000F6
:1042B0001CB51148114908604AF6C77048600021D2
:1042C0000E4881604FF4FA61C160FEF7A7FE20B18D
:1042D00040F2A7210AA001F00BFA00200090019003
:1042E00069460648FEF769FE20B140F2AE2104A0FF
:1042F00001F0FEF91CBD0000001400402440012024
:104300002E2E2F5372632F6D61696E2E6300000095
:1043100010B50C480C4908604FF4E13048600021AA
:1043200009488160C16001610C2141610021816106
:10433000C161FFF759F920B140F2E32103A001F078
:10434000D7F910BD001001409C4001202E2E2F53A4
:1043500072632F6D61696E2E6300000000F01F0212
:1043600001219140024A430942F82310704700009E
:1043700080E200E000F01F0201219140024A43095F
:1043800042F823107047000080E200E00248006815
:10439000C0F30220704700000CED00E010B50028CB
:1043A00007DA0A07140E054A00F00F031B1FD45446
:1043B00003E00A07130E024A135410BD18ED00E083
:1043C00000E400E0014620480078C8B100201E4A01
:1043D00010701E4A1070122901D0592903D10020F3
:1043E0001B4A10700AE0112903D10020184A5070AE
:1043F00004E0142902D10020154AD0700020704733
:104400001448124A1278815410480078401C0F4A10
:104410001070F02904D101200B4A10700020EEE743
:10442000E02904D101200B4A521F107106E0002040
:10443000064A10700120074A521F50700020064A99
:10444000107000BFDBE70000CB010120CA01012092
:104450001C01012043430120C8010120344909689F
:10446000C8B234490978A1B9012860DD0A285EDAAA
:10447000314909784910304A11703049096801F012
:104480000201002953D01146097841F080011170D2
:104490004DE028490978012949D1012818D1254939
:1044A000C978254A11701146097801F0010121B13E
:1044B0000221224A0832116004E04FF400311F4A01
:1044C000083211601C49097849101B4A11702EE00E
:1044D000012816DD092814DA1749097801F00101CD
:1044E00021B10221154A0832116004E04FF4003175
:1044F000124A083211601049097849100E4A1170A9
:1045000015E009280DD10E49097821B102210B4A85
:10451000083211600BE04FF40031084A0832116094
:1045200005E00A2803D10221044A083211607047CD
:10453000240400403E430120C8010120100802402D
:10454000C901012010B54148006820F001003F4931
:1045500008600846006820F4007008603B48083096
:10456000006820F0200039490831086008460068DA
:1045700020F007000860081D006820F04000091DB9
:10458000086032482030006820F002002F492031B6
:1045900008602E481830006820F480502B491831EC
:1045A00008600846006820F48070086000202749F1
:1045B00028310860091D0860002211461D20FDF702
:1045C00059FB1D20FFF7D6FE1D2001218140204A06
:1045D000430942F8231000BF1E48006820F0020083
:1045E0001C4908601C48006820F004001A49086053
:1045F000081D006820F00200091D0860081D006801
:1046000020F00400091D0860081D006820F0040067
:10461000091D08601148006A20F000500F49086227
:104620000846006820F4804008600846406820F092
:10463000800048600846806820F480408860084612
:10464000C06820F48040C86010BD00000004004035
:1046500080E100E0403802400008024000000240D3
:1046600008B55D48006840F002005B4908605A48A0
:104670001438006840F00400574914390860081DD8
:10468000006840F00200091D0860081D006840F045
:104690000400091D0860081D006840F00400091DA1
:1046A000086002204C49091D08604C48406940F0F0
:1046B00080004A4948610846006820F4804008604C
:1046C0000846006840F4004008600846406840F032
:1046D000800048600846806840F480408860084652
:1046E000C06840F48040C860802088610846006A45
:1046F00040F00050086200BF002000903848006879
:1047000040F00200364908600846006800F00200E8
:10471000009000BF00BF3348006840F4007031498A
:10472000086030480830006840F060002D490831CA
:1047300008600846006840F007000860081D00682F
:1047400040F04100091D086026482030006840F014
:10475000200024492031086022481830006840F4C5
:1047600050402049183108600846006840F48070C5
:10477000086000201B49283108600A20091D0860D4
:1047800018481430006840F00100164914310860E0
:10479000081F006820F00100091F0860002207219F
:1047A0001D20FDF767FA1D20FFF7E4FD1D20012104
:1047B00081404209920002F1E022C2F8001100BFDC
:1047C0000848006840F001000649086000200649DA
:1047D0008870C87008BD0000140802400000024044
:1047E00040380240000400403E43012001B5002152
:1047F0000020084A507104E00648407908B10121C0
:1048000004E00098421E00920028F5D100BF08463F
:1048100008BD00003E43012001B5002104E0064828
:10482000007808B9012104E00098421E0092002897
:10483000F5D100BF084608BD3E43012030B504460F
:104840000020324908703248C47000250AE004F0A4
:10485000010020B12D480078401C2C4908706410DC
:10486000681C85B2082DF2DB2849087800EBD0716E
:104870004910A0EB410119B100202449087002E061
:104880000120224908702348006820F40040214993
:1048900008600846006840F480400860880188612C
:1048A000002501E0681C85B2B5F57A6FFADB0020BF
:1048B0001949086048131949086080201549886122
:1048C0000846006820F4804008600846006840F40C
:1048D0000040086000200E4988700120087044F6EE
:1048E0002060FFF799FF08B9002030BD44F6206032
:1048F000FFF77CFF08B90020F7E705484079FA2860
:1049000001D00020F1E70120EFE70000C9010120FC
:104910003E430120000002402404004018080240E9
:10492000014600BF080900EB8000420001F00F00C3
:104930001044C0B270470146002203E0521CA1F1AE
:104940000A00C1B20A29F9D2100741EA1060704783
:1049500070B5044600252068C06800F04000A0B98A
:10496000681E2168C860FCF7B7FE054607E0FCF743
:10497000B3FE401BB0F57A7F01D9032070BD2068DB
:10498000C06800F040000028F1D00020F6E70000E9
:1049900010B50448FEF764F80348006801F052FBC4
:1049A00010BD0000C83F0120BC00012010B586B03A
:1049B000044600200190012002900820039001206D
:1049C0000490002005904FF6FF7202A92648FEF7DA
:1049D000A7FA0120FCF7D9FC0220029008200390DE
:1049E00001200490002005904FF6FF7202A91E4896
:1049F000FEF796FA0320029008200390042004900A
:104A0000002005904FF6FF7202A91748FEF788FABA
:104A100040F23120019004200290082003900120F0
:104A20000490019805904FF6FF7202A90E48FEF718
:104A300077FA21460C48FEF75FFA00BF0B48006882
:104A400000F020000028F9D14FF05040019005E01F
:104A50000020019908600198001D0190019810F153
:104A60003E5FF5D306B010BD9C410120580100A067
:104A70000EB500BFFF204FF0FF1101230222CDE948
:104A800000105A216AA0FEF75FFFFF2001020123F8
:104A90000222CDE900107B2166A0FEF755FFFF2022
:104AA000010201231A22CDE900104FF4BE7163A068
:104AB000FEF74AFFB420634901220223CDE9002119
:104AC00002904FF4F07200210846FEF773FEB42006
:104AD0005C4901220223CDE9002102904FF4EE72DD
:104AE00018211846FEF766FEB4205649012202231B
:104AF000CDE9002102904FF4EE72F0211846FEF746
:104B000059FEB4204F4901220223CDE90021029031
:104B10004FF4F0724FF487710020FEF74BFEB42083
:104B2000484901221623CDE90021029002221146B4
:104B30005520FEF73FFEB420424901221623CDE95D
:104B400000210290022211467320FEF733FEB420AA
:104B50003C4901221623CDE9002102900222114690
:104B60004FF48C70FEF726FEB4203649012216233E
:104B7000CDE900210290022211464FF4C370FEF7E6
:104B800019FEB4202F4901224FF40873CDE900210A
:104B90000290022200210846FEF70CFEB4202949AB
:104BA00001224FF40873CDE9002102900222002176
:104BB0004FF4EF70FEF7FEFDFFF752FDFF20FFF709
:104BC0003DFE012801D0FFF7BDFC00F093FD4FF43E
:104BD0007A7001F016F91C48006801F0B1FA1B4820
:104BE000006801F0ADFA1A48006801F0A9FA194806
:104BF000006801F0A5FA1848006801F0A1FA17480A
:104C0000006801F09DFA1648006801F099FA15480D
:104C1000006801F095FA1448006801F091FA134811
:104C2000006801F08DFA1248006801F0AAFA21E745
:104C3000454E00004C6F61640000000048656170E3
:104C40000000000000FFFF00800001208400012020
:104C5000880001208C000120900001209400012098
:104C6000980001209C000120A0000120A400012048
:104C70007C00012010B501F043FA10BD10B59EB0C4
:104C800000BF002000904048006840F080503E493E
:104C900008600846006800F08050009000BF00BF28
:104CA00000BF002000903948006840F44040374978
:104CB00008600846006800F44040009000BF00BF54
:104CC000052012904FF480301390012014900220A0
:104CD00018904105199108211A914FF4B4711B9154
:104CE00002211C9108211D9112A8FDF7B5FB20B1EE
:104CF0004FF4D97126A000F0FBFCFDF70DF820B1B0
:104D000040F2B91122A000F0F3FC0F200D90022018
:104D10000E9000200F904FF4A05010904FF4805050
:104D2000119005210DA8FDF701FA20B140F2C7113D
:104D300017A000F0DDFC282001904FF49070059042
:104D4000022107914FF440300A90C8010B9001A84E
:104D5000FDF734F820B140F2D1110DA000F0C8FCED
:104D6000FDF7EEFA4FF47A71B0FBF1F42046FEF74E
:104D700008F90420FEF7F1F800220F21501EFCF77D
:104D800079FF1EB010BD00004038024000700040A6
:104D90002E2E2F5372632F6D61696E2E63000000FB
:104DA0001448006840F47000124908601248006816
:104DB00040F001001049086000200F4908310860E8
:104DC0000D4800680D4908400B4908600C48091D52
:104DD0000860081F006820F48020091F0860002078
:104DE00005490C3108604FF00050024980390860D5
:104DF0007047000088ED00E000380240FFFFF6FE3B
:104E00001030002410B51948006800F00100F8B116
:104E10001648006820F040001449086014480078E3
:104E200070B914480078FFF7CDFA1048006820F0F8
:104E300001000E4908601048006801F003F914E011
:104E40000B480078012810D10020094908700CE0B7
:104E50000648006800F0400038B1FFF7FFFA034849
:104E6000006820F040000149086010BD10040040B7
:104E70003E430120C8010120E400012010B5044890
:104E8000FEF750F90348006801F0DCF810BD00009F
:104E9000E83F0120E800012010B50448FEF742F980
:104EA0000348006801F0CEF810BD00002440012046
:104EB000EC00012010B50248FEF734F910BD0000E7
:104EC000D0410120002202682C4B98420ED0B0F154
:104ED000804F0BD02A4B984208D02A4B984205D0DD
:104EE000294B984202D0294B984201D1012300E07E
:104EF00000231BB122F070024B681A431F4B9842EB
:104F000020D0B0F1804F1DD01D4B98421AD01D4BC0
:104F1000984217D01C4B984214D01C4B984211D089
:104F20001B4B98420ED01B4B98420BD01A4B984209
:104F300008D01A4B984205D0194B984202D0194B11
:104F4000984201D1012300E000231BB122F44072FA
:104F5000CB681A4302608B68C3620B688362074B9D
:104F6000984202D0094B984201D1012300E000236E
:104F70000BB10B69036301234361704700000140DB
:104F80000004004000080040000C00400004014004
:104F9000004001400044014000480140001800402A
:104FA000001C00400020004030B50023012404FA1A
:104FB00001F3046A9C430462046A02FA01F52C437B
:104FC000046230BD30B5002400220023056A25F0BC
:104FD00001050562026A4368846924F0700424F0C4
:104FE00003040D682C4322F002028D682A430F4D02
:104FF000A84202D00E4DA84201D1012500E00025B3
:105000006DB122F00802CD682A4322F0040223F495
:10501000807323F400734D692B438D692B434360E8
:1050200084614D684563026230BD000000000140AC
:105030000004014030B5002400220023056A25F059
:1050400010050562026A4368846924F4E04424F48C
:1050500040740D6844EA052422F020028D6842EA7B
:105060000512104DA84202D00F4DA84201D10125D2
:1050700000E0002585B122F08002CD6842EA0512E9
:1050800022F0400223F4806323F400634D6943EA75
:1050900085038D6943EA8503436084614D688563B8
:1050A000026230BD000001400004014030B5002420
:1050B00000220023056A25F480750562026A4368B0
:1050C000C46924F0700424F003040D682C4322F416
:1050D00000728D6842EA0522104DA84202D0104DA0
:1050E000A84201D1012500E0002585B122F400622B
:1050F000CD6842EA052222F4806223F4805323F42F
:1051000000534D6943EA05138D6943EA0513436073
:10511000C4614D68C563026230BD000000000140FB
:105120000004014030B5002200230024056A25F464
:1051300080550562036A4468C26922F4E04222F4A1
:1051400040720D6842EA052223F400538D6843EA59
:1051500005330A4DA84202D0094DA84201D10125CC
:1051600000E0002525B124F480444D6944EA85140B
:105170004460C2614D680564036230BD00000140B7
:105180000004014070B50546AC6B0020E085E0846A
:105190002046FEF782F970BD0168C96821F490715C
:1051A0000268D1600168496921F00101026851611A
:1051B000202180F83A10704710B504462068C06876
:1051C00020F040002168C860202084F83900204683
:1051D000FEF7EFFA002010BD70B5044694F83A00CF
:1051E000222844D1A068B0F5805F13D1A56A206958
:1051F00040B920684068C0F308002880A06A801C7D
:10520000A06219E020684068C0B22880A06A401CF3
:10521000A06211E0206938B920684068C1B2A26A72
:10522000501CA062117007E02068406800F07F0108
:10523000A26A501CA0621170E08D401E80B2E08511
:1052400098B92068C06820F490702168C860206810
:10525000406920F0010021684861202084F83A006C
:105260002046FEF7A5FA002070BD0020FCE70220D2
:10527000FAE700002DE9F0410446002520680569A1
:1052800025F44055E0680543206805612068C5683D
:1052900049F20C6085432169A068084361690843AD
:1052A000E169084305432068C5602068456925F425
:1052B0004075A069054320684561E069B0F5004F7D
:1052C0007ED1C4492068884203D0C34920688842FF
:1052D0005DD1FDF751F800EBC00101EB00106168F2
:1052E0004900B0FBF1F06421B0FBF1F00601FDF7DD
:1052F00043F800EBC00101EB001061684900B0FB0E
:10530000F1F7FDF739F800EBC00101EB001061681F
:105310004900B0FBF1F06421B0FBF1F000EBC001FB
:1053200001EB0010A7EB8000322101EBC0006421EB
:10533000B0FBF1F000F0F80006EB4006FDF71CF8BA
:1053400000EBC00101EB001061684900B0FBF1F710
:10535000FDF712F800EBC00101EB00106168490095
:10536000B0FBF1F06421B0FBF1F000EBC00101EB08
:105370000010A7EB8000322101EBC0006421B0FBDC
:10538000F1F000F0070030442168886020E1FCF76C
:10539000DDFF00EBC00101EB001061684900B0FBCC
:1053A000F1F06421B0FBF1F00601FCF7CFFF00EB58
:1053B000C00101EB001061684900B0FBF1F700E0AB
:1053C00045E0FCF7C3FF00EBC00101EB0010616892
:1053D0004900B0FBF1F06421B0FBF1F000EBC0013B
:1053E00001EB0010A7EB8000322101EBC00064212B
:1053F000B0FBF1F000F0F80006EB4006FCF7A6FF6A
:1054000000EBC00101EB001061684900B0FBF1F74F
:10541000FCF79CFF00EBC00101EB00106168490044
:10542000B0FBF1F06421B0FBF1F000EBC00101EB47
:105430000010A7EB8000322101EBC0006421B0FB1B
:10544000F1F000F00700304421688860C0E0614955
:105450002068884203D06049206888425CD1FCF70C
:105460008BFF00EBC00101EB001061688900B0FB0D
:10547000F1F6FCF781FF00EBC00101EB0010616861
:105480008900B0FBF1F06421B0FBF1F000EBC0014A
:1054900001EB0010A6EB8000322101EB001064212B
:1054A000B0FBF1F000F0F006FCF766FF00EBC00186
:1054B00001EB001061688900B0FBF1F06421B0FBE2
:1054C000F1F006EB0016FCF757FF00EBC00101EB13
:1054D000001061688900B0FBF1F7FCF74DFF00EBAD
:1054E000C00101EB001061688900B0FBF1F064219C
:1054F000B0FBF1F000EBC00101EB0010A7EB800066
:10550000322101EB00106421B0FBF1F000F00F003C
:105510003044216888605BE0FCF718FF00EBC001B5
:1055200001EB001061688900B0FBF1F6FCF70EFF9B
:1055300000EBC00101EB001061688900B0FBF1F0E5
:105540006421B0FBF1F000EBC00101EB0010A6EB11
:105550008000322101EB00106421B0FBF1F000F07B
:10556000F006FCF7F3FE00EBC00101EB00106168F0
:105570008900B0FBF1F06421B0FBF1F006EB0016FE
:10558000FCF7E4FE00EBC00101EB0010616889004C
:10559000B0FBF1F7FCF7DAFE00EBC00101EB001005
:1055A00061688900B0FBF1F06421B0FBF1F000EB21
:1055B000C00101EB0010A7EB8000322101EB0010CD
:1055C0006421B0FBF1F000F00F00304421688860E6
:1055D000BDE8F08100100140001401400021104A94
:1055E000104B1A601A1D106001E04A1CD1B210F86D
:1055F000013B002BF9D10B4A121F1160094AB43A42
:10560000126842F04062074BB43B1A60054A083A00
:10561000126842F01102034B083B1A607047000009
:1056200004100140C0640240014691F8390021286D
:105630002CD18868B0F5805F0FD10A6A1088C0F35A
:1056400008000B685860086918B9086A801C08626D
:1056500009E0086A401C086205E00B6A581C0862F1
:1056600018780B685860C88C401E80B2C88458B93E
:105670000868C06820F080000B68D8600868C068BF
:1056800040F040000B68D860002070470220FCE723
:1056900010B51048FDF702FF0F48007840B10F48E1
:1056A00040680D2815D10E48006800F0CBFC10E0D2
:1056B0000A4840680D280CD10A480068C0F1320041
:1056C000C4B20021601E084A11540848006800F066
:1056D000B9FC10BD9C400120680001200010014071
:1056E000E0000120446402400C420120D800012067
:1056F00000BFFEE700B585B09448006840F0C06088
:1057000092490860092004900220019060200090D6
:10571000012002900220039069468D48FBF7C8FEE5
:105720008C48006840F020008A49086008460068FC
:1057300040F020000860002206214020FCF79AFA81
:10574000002206214120FCF795FA002206213F2085
:10575000FCF790FA8048006820F002007E4908605B
:105760007C481038006820F002007A49103908603F
:105770007948006840F001007749086075481038A2
:10578000006840F0010073491039086000BF71489B
:105790000C38006800F001000028F8D06D4810387F
:1057A000006840F480306B49103908600846006892
:1057B00040F0400008600846006820F08000086063
:1057C0000846006820F0200008600846006820F0C5
:1057D000100008600846006820F0080008600846CD
:1057E000006820F0040008605A480C30006820F07F
:1057F000804058490C3108600846006820F000409D
:1058000008600846006840F01D000860084600680F
:1058100040F0807008600846006840F4802008600E
:105820004E48006840F001004C490860081D0068BF
:1058300020F44040091D08600846006840F48030AC
:10584000086046480C30006820F4E03043490C31D1
:10585000086042481430006820F4E0303F491431B9
:1058600008603E48001D006840F400303B49091DB7
:1058700008600846006820F44020086037480C3073
:10588000006820F4602035490C310860334814303A
:10589000006840F4602031491431086030492F48D5
:1058A000B03001602F49001D01602D494031001DBD
:1058B00001602D49001D01602C49001D01602C492B
:1058C000001D01602B49001D01602B49001D016076
:1058D0002A49001D01602A49001D01602849403104
:1058E000001D01602749001D01601C481C30006834
:1058F00040F47C2019491C3108601848006820F0E9
:105900000100164908601348001D006840F01300AC
:105910001049091D08600F481038006820F0010088
:105920000C491039086000BF0A480C38006800F0C4
:1059300001000028F8D14020FCF78FF94120FCF746
:105940008CF93F20FCF789F905B000BD40380240D2
:1059500000040240106800400064004000660040FF
:105960000030FF1F20303030603070308030903099
:10597000A030B030C030D030E030F0300031FF1F08
:10598000404EFF1F6031703110B502460B464FF09C
:10599000FF3108E012F8010B4840C0B2054C54F842
:1059A000200080EA1121181EA3F10103F2D1C8439F
:1059B00010BD000078F3002000BFEFF3058008B1B0
:1059C000012070470020FCE7CAB0FBF793FEFFF709
:1059D00055F9FEF713FAFEF7ADF9FEF761F9FEF798
:1059E00079F9FEF7CBF9FEF7DBFAFEF779FBFEF764
:1059F0002FFCFEF75DFCFEF7E7FBFEF789FC40F2AB
:105A00006A50FEF7D3FFD748FCF75EFF00204990AD
:105A100049A800F099FAD44908600020489048A8A5
:105A200000F092FAD149086000204790012147A870
:105A300000F0EEFACE49086000204690012146A809
:105A400000F0E6FACB49086000204590012145A806
:105A500000F0DEFAC849086000204490012144A803
:105A600000F0D6FAC549086000204390012143A800
:105A700000F0CEFAC249086000204290012142A8FD
:105A800000F0C6FABF49086000204190012141A8FA
:105A900000F0BEFABC49086000204090012140A8F7
:105AA00000F0B6FAB949086000203F9001213FA8F4
:105AB00000F0AEFAB649086000203E9001213EA8F1
:105AC00000F0A6FAB349086000203D9001213DA8EE
:105AD00000F09EFAB049086000203C9001213CA8EB
